{
  "contractName": "Escrow",
  "abi": [
    {
      "constant": true,
      "inputs": [],
      "name": "seller",
      "outputs": [
        {
          "name": "",
          "type": "address"
        }
      ],
      "payable": false,
      "stateMutability": "view",
      "type": "function"
    },
    {
      "constant": true,
      "inputs": [],
      "name": "refundCount",
      "outputs": [
        {
          "name": "",
          "type": "uint256"
        }
      ],
      "payable": false,
      "stateMutability": "view",
      "type": "function"
    },
    {
      "constant": true,
      "inputs": [],
      "name": "buyer",
      "outputs": [
        {
          "name": "",
          "type": "address"
        }
      ],
      "payable": false,
      "stateMutability": "view",
      "type": "function"
    },
    {
      "constant": true,
      "inputs": [],
      "name": "amount",
      "outputs": [
        {
          "name": "",
          "type": "uint256"
        }
      ],
      "payable": false,
      "stateMutability": "view",
      "type": "function"
    },
    {
      "constant": true,
      "inputs": [],
      "name": "releaseCount",
      "outputs": [
        {
          "name": "",
          "type": "uint256"
        }
      ],
      "payable": false,
      "stateMutability": "view",
      "type": "function"
    },
    {
      "constant": true,
      "inputs": [],
      "name": "productId",
      "outputs": [
        {
          "name": "",
          "type": "uint256"
        }
      ],
      "payable": false,
      "stateMutability": "view",
      "type": "function"
    },
    {
      "constant": true,
      "inputs": [],
      "name": "fundsDisbursed",
      "outputs": [
        {
          "name": "",
          "type": "bool"
        }
      ],
      "payable": false,
      "stateMutability": "view",
      "type": "function"
    },
    {
      "constant": true,
      "inputs": [],
      "name": "arbiter",
      "outputs": [
        {
          "name": "",
          "type": "address"
        }
      ],
      "payable": false,
      "stateMutability": "view",
      "type": "function"
    },
    {
      "inputs": [
        {
          "name": "_productId",
          "type": "uint256"
        },
        {
          "name": "_buyer",
          "type": "address"
        },
        {
          "name": "_seller",
          "type": "address"
        },
        {
          "name": "_arbiter",
          "type": "address"
        }
      ],
      "payable": true,
      "stateMutability": "payable",
      "type": "constructor"
    },
    {
      "constant": false,
      "inputs": [
        {
          "name": "caller",
          "type": "address"
        }
      ],
      "name": "releaseAmountToSeller",
      "outputs": [],
      "payable": false,
      "stateMutability": "nonpayable",
      "type": "function"
    },
    {
      "constant": false,
      "inputs": [
        {
          "name": "caller",
          "type": "address"
        }
      ],
      "name": "refundAmountToBuyer",
      "outputs": [],
      "payable": false,
      "stateMutability": "nonpayable",
      "type": "function"
    }
  ],
  "bytecode": "0x60806040526040516080806109fc833981018060405281019080805190602001909291908051906020019092919080519060200190929190805190602001909291905050508360008190555082600160006101000a81548173ffffffffffffffffffffffffffffffffffffffff021916908373ffffffffffffffffffffffffffffffffffffffff16021790555081600260006101000a81548173ffffffffffffffffffffffffffffffffffffffff021916908373ffffffffffffffffffffffffffffffffffffffff16021790555080600360006101000a81548173ffffffffffffffffffffffffffffffffffffffff021916908373ffffffffffffffffffffffffffffffffffffffff16021790555034600481905550505050506108d4806101286000396000f3006080604052600436106100a4576000357c0100000000000000000000000000000000000000000000000000000000900463ffffffff16806308551a53146100a95780630bda4dbf1461010057806358aad10b1461012b5780637150d8ae1461016e578063a97d1b10146101c5578063aa8c217c14610208578063b8d08db214610233578063c5ce39111461025e578063d1a52e3014610289578063fe25e00a146102b8575b600080fd5b3480156100b557600080fd5b506100be61030f565b604051808273ffffffffffffffffffffffffffffffffffffffff1673ffffffffffffffffffffffffffffffffffffffff16815260200191505060405180910390f35b34801561010c57600080fd5b50610115610335565b6040518082815260200191505060405180910390f35b34801561013757600080fd5b5061016c600480360381019080803573ffffffffffffffffffffffffffffffffffffffff16906020019092919050505061033b565b005b34801561017a57600080fd5b506101836105b9565b604051808273ffffffffffffffffffffffffffffffffffffffff1673ffffffffffffffffffffffffffffffffffffffff16815260200191505060405180910390f35b3480156101d157600080fd5b50610206600480360381019080803573ffffffffffffffffffffffffffffffffffffffff1690602001909291905050506105df565b005b34801561021457600080fd5b5061021d61085d565b6040518082815260200191505060405180910390f35b34801561023f57600080fd5b50610248610863565b6040518082815260200191505060405180910390f35b34801561026a57600080fd5b50610273610869565b6040518082815260200191505060405180910390f35b34801561029557600080fd5b5061029e61086f565b604051808215151515815260200191505060405180910390f35b3480156102c457600080fd5b506102cd610882565b604051808273ffffffffffffffffffffffffffffffffffffffff1673ffffffffffffffffffffffffffffffffffffffff16815260200191505060405180910390f35b600260009054906101000a900473ffffffffffffffffffffffffffffffffffffffff1681565b60095481565b600760009054906101000a900460ff1615151561035757600080fd5b600160009054906101000a900473ffffffffffffffffffffffffffffffffffffffff1673ffffffffffffffffffffffffffffffffffffffff168173ffffffffffffffffffffffffffffffffffffffff1614806104005750600260009054906101000a900473ffffffffffffffffffffffffffffffffffffffff1673ffffffffffffffffffffffffffffffffffffffff168173ffffffffffffffffffffffffffffffffffffffff16145b806104585750600360009054906101000a900473ffffffffffffffffffffffffffffffffffffffff1673ffffffffffffffffffffffffffffffffffffffff168173ffffffffffffffffffffffffffffffffffffffff16145b80156104b5575060011515600560008373ffffffffffffffffffffffffffffffffffffffff1673ffffffffffffffffffffffffffffffffffffffff16815260200190815260200160002060009054906101000a900460ff16151514155b15610524576001600560008373ffffffffffffffffffffffffffffffffffffffff1673ffffffffffffffffffffffffffffffffffffffff16815260200190815260200160002060006101000a81548160ff02191690831515021790555060016006600082825401925050819055505b600260065414156105b657600260009054906101000a900473ffffffffffffffffffffffffffffffffffffffff1673ffffffffffffffffffffffffffffffffffffffff166108fc6004549081150290604051600060405180830381858888f19350505050158015610599573d6000803e3d6000fd5b506001600760006101000a81548160ff0219169083151502179055505b50565b600160009054906101000a900473ffffffffffffffffffffffffffffffffffffffff1681565b600760009054906101000a900460ff161515156105fb57600080fd5b600160009054906101000a900473ffffffffffffffffffffffffffffffffffffffff1673ffffffffffffffffffffffffffffffffffffffff168173ffffffffffffffffffffffffffffffffffffffff1614806106a45750600260009054906101000a900473ffffffffffffffffffffffffffffffffffffffff1673ffffffffffffffffffffffffffffffffffffffff168173ffffffffffffffffffffffffffffffffffffffff16145b806106fc5750600360009054906101000a900473ffffffffffffffffffffffffffffffffffffffff1673ffffffffffffffffffffffffffffffffffffffff168173ffffffffffffffffffffffffffffffffffffffff16145b8015610759575060011515600860008373ffffffffffffffffffffffffffffffffffffffff1673ffffffffffffffffffffffffffffffffffffffff16815260200190815260200160002060009054906101000a900460ff16151514155b156107c8576001600860008373ffffffffffffffffffffffffffffffffffffffff1673ffffffffffffffffffffffffffffffffffffffff16815260200190815260200160002060006101000a81548160ff02191690831515021790555060016009600082825401925050819055505b6002600954141561085a57600160009054906101000a900473ffffffffffffffffffffffffffffffffffffffff1673ffffffffffffffffffffffffffffffffffffffff166108fc6004549081150290604051600060405180830381858888f1935050505015801561083d573d6000803e3d6000fd5b506001600760006101000a81548160ff0219169083151502179055505b50565b60045481565b60065481565b60005481565b600760009054906101000a900460ff1681565b600360009054906101000a900473ffffffffffffffffffffffffffffffffffffffff16815600a165627a7a72305820faad4ec0be6e0a070e3b3d991bb74082a304e0b47ca60068dba9e40de6148f080029",
  "source": "pragma solidity ^0.4.13;\r\n\r\ncontract Escrow{\r\n    uint public productId;\r\n    address public buyer;\r\n    address public seller;\r\n    address public arbiter;\r\n    uint public amount;\r\n    mapping (address => bool) releaseAmount; //记录参与者是否已经投过票\r\n    uint public releaseCount;                //有几个参与者同意释放资金\r\n    bool public fundsDisbursed;              //资金是否已经流出托管账户\r\n    mapping (address => bool) refundAmount;  //记录参与者是否已经投过票\r\n    uint public refundCount;                 //有几个参与者同意返还资金\r\n\r\n    function Escrow(uint _productId, address _buyer,\r\n                    address _seller, address _arbiter) payable public {\r\n        //保存商品编号\r\n        productId = _productId;\r\n        //保存参与三方的账户地址\r\n        buyer = _buyer;\r\n        seller = _seller;\r\n        arbiter = _arbiter;\r\n        //只有声明了payable的函数，msg.value才有效\r\n        amount = msg.value;\r\n    }\r\n\r\n    function releaseAmountToSeller(address caller) public {\r\n        //如果资金已经流出，则终止函数执行\r\n        require(!fundsDisbursed);\r\n        //只有托管合约的参与三方可以投票决定资金的流向，而且每个人只能投一次票\r\n        if ((caller == buyer || caller == seller || caller == arbiter) &&\r\n            releaseAmount[caller] != true) {\r\n                releaseAmount[caller] = true;\r\n                releaseCount += 1;\r\n        }\r\n\r\n        //如果同意向卖家释放资金的人超过半数，就立刻将托管资金转入卖家账户\r\n        if (releaseCount == 2) {\r\n            seller.transfer(amount);\r\n            fundsDisbursed = true;\r\n        }\r\n    }\r\n\r\n    function refundAmountToBuyer(address caller) public {\r\n        //如果资金已经流出，则终止函数执行\r\n        require(!fundsDisbursed);\r\n        //只有托管合约的参与三方可以投票决定资金的流向，而且每个人只能投一次票\r\n        if ((caller == buyer || caller == seller || caller == arbiter) &&\r\n            refundAmount[caller] != true) {\r\n                refundAmount[caller] = true;\r\n                refundCount += 1;\r\n        }\r\n\r\n        //如果同意向买家释放资金的人超过半数，就立刻将托管资金转入买家账户\r\n        if (refundCount == 2) {\r\n            buyer.transfer(amount);\r\n            fundsDisbursed = true;\r\n        }\r\n    }\r\n}",
  "sourcePath": "F:\\视频\\区块链\\House\\contracts\\Escrow.sol",
  "compiler": {
    "name": "solc",
    "version": "0.4.26+commit.4563c3fc.Emscripten.clang"
  },
  "schemaVersion": "2.0.3",
  "updatedAt": "2019-11-20T05:57:41.142Z"
}