{
  "contractName": "HouseStore",
  "abi": [
    {
      "constant": true,
      "inputs": [],
      "name": "HouseIndex",
      "outputs": [
        {
          "name": "",
          "type": "uint256"
        }
      ],
      "payable": false,
      "stateMutability": "view",
      "type": "function"
    },
    {
      "constant": false,
      "inputs": [],
      "name": "houseId",
      "outputs": [],
      "payable": false,
      "stateMutability": "nonpayable",
      "type": "function"
    },
    {
      "constant": false,
      "inputs": [
        {
          "name": "_name",
          "type": "string"
        },
        {
          "name": "_room",
          "type": "uint256"
        },
        {
          "name": "_category",
          "type": "string"
        },
        {
          "name": "_balcony",
          "type": "uint256"
        },
        {
          "name": "_bathroom",
          "type": "uint256"
        },
        {
          "name": "_HouseAddress",
          "type": "string"
        },
        {
          "name": "_floors",
          "type": "uint256"
        },
        {
          "name": "_price",
          "type": "uint256"
        },
        {
          "name": "_deposit",
          "type": "uint256"
        },
        {
          "name": "_imageLink",
          "type": "string"
        },
        {
          "name": "_descLink",
          "type": "string"
        },
        {
          "name": "_HouseCondition",
          "type": "uint256"
        }
      ],
      "name": "addHouseToStore",
      "outputs": [],
      "payable": false,
      "stateMutability": "nonpayable",
      "type": "function"
    },
    {
      "constant": true,
      "inputs": [
        {
          "name": "_productId",
          "type": "uint256"
        }
      ],
      "name": "getProduct",
      "outputs": [
        {
          "name": "",
          "type": "uint256"
        },
        {
          "name": "",
          "type": "string"
        },
        {
          "name": "",
          "type": "uint256"
        },
        {
          "name": "",
          "type": "string"
        },
        {
          "name": "",
          "type": "uint256"
        },
        {
          "name": "",
          "type": "uint256"
        },
        {
          "name": "",
          "type": "string"
        },
        {
          "name": "",
          "type": "uint256"
        },
        {
          "name": "",
          "type": "uint256"
        },
        {
          "name": "",
          "type": "string"
        }
      ],
      "payable": false,
      "stateMutability": "view",
      "type": "function"
    },
    {
      "constant": false,
      "inputs": [
        {
          "name": "_productId",
          "type": "uint256"
        },
        {
          "name": "_month",
          "type": "uint256"
        },
        {
          "name": "_StartTime",
          "type": "uint256"
        },
        {
          "name": "_prices",
          "type": "uint256"
        }
      ],
      "name": "buy",
      "outputs": [
        {
          "name": "",
          "type": "bool"
        }
      ],
      "payable": true,
      "stateMutability": "payable",
      "type": "function"
    }
  ],
  "bytecode": "0x608060405234801561001057600080fd5b50610f58806100206000396000f30060806040526004361061006d576000357c0100000000000000000000000000000000000000000000000000000000900463ffffffff1680631281311d1461007257806398efdeee146100c8578063b9db15b41461028f578063c00acb4a146104a3578063d633d779146104ba575b600080fd5b6100ae600480360381019080803590602001909291908035906020019092919080359060200190929190803590602001909291905050506104e5565b604051808215151515815260200191505060405180910390f35b3480156100d457600080fd5b5061028d600480360381019080803590602001908201803590602001908080601f016020809104026020016040519081016040528093929190818152602001838380828437820191505050505050919291929080359060200190929190803590602001908201803590602001908080601f01602080910402602001604051908101604052809392919081815260200183838082843782019150505050505091929192908035906020019092919080359060200190929190803590602001908201803590602001908080601f0160208091040260200160405190810160405280939291908181526020018383808284378201915050505050509192919290803590602001909291908035906020019092919080359060200190929190803590602001908201803590602001908080601f0160208091040260200160405190810160405280939291908181526020018383808284378201915050505050509192919290803590602001908201803590602001908080601f016020809104026020016040519081016040528093929190818152602001838380828437820191505050505050919291929080359060200190929190505050610696565b005b34801561029b57600080fd5b506102ba6004803603810190808035906020019092919050505061091a565b604051808b8152602001806020018a815260200180602001898152602001888152602001806020018781526020018681526020018060200185810385528e818151815260200191508051906020019080838360005b8381101561032a57808201518184015260208101905061030f565b50505050905090810190601f1680156103575780820380516001836020036101000a031916815260200191505b5085810384528c818151815260200191508051906020019080838360005b83811015610390578082015181840152602081019050610375565b50505050905090810190601f1680156103bd5780820380516001836020036101000a031916815260200191505b50858103835289818151815260200191508051906020019080838360005b838110156103f65780820151818401526020810190506103db565b50505050905090810190601f1680156104235780820380516001836020036101000a031916815260200191505b50858103825286818151815260200191508051906020019080838360005b8381101561045c578082015181840152602081019050610441565b50505050905090810190601f1680156104895780820380516001836020036101000a031916815260200191505b509e50505050505050505050505050505060405180910390f35b3480156104af57600080fd5b506104b8610df1565b005b3480156104c657600080fd5b506104cf610dfb565b6040518082815260200191505060405180910390f35b6000806000806001600089815260200190815260200160002060009054906101000a900473ffffffffffffffffffffffffffffffffffffffff1673ffffffffffffffffffffffffffffffffffffffff1673ffffffffffffffffffffffffffffffffffffffff1681526020019081526020016000206000878152602001908152602001600020905084816008015402816009015401831015151561058757600080fd5b60a0604051908101604052803373ffffffffffffffffffffffffffffffffffffffff1681526020018781526020018481526020018581526020018681525081600d0160003373ffffffffffffffffffffffffffffffffffffffff1673ffffffffffffffffffffffffffffffffffffffff168152602001908152602001600020600085815260200190815260200160002060008201518160000160006101000a81548173ffffffffffffffffffffffffffffffffffffffff021916908373ffffffffffffffffffffffffffffffffffffffff160217905550602082015181600101556040820151816002015560608201518160030155608082015181600401559050506001915050949350505050565b61069e610e01565b60016003600082825401925050819055506101c06040519081016040528060035481526020018e81526020018d81526020018c81526020018b81526020018a815260200189815260200188815260200187815260200186815260200185815260200184815260200160018081111561071257fe5b815260200183600181111561072357fe5b600181111561072e57fe5b8152509050806000803373ffffffffffffffffffffffffffffffffffffffff1673ffffffffffffffffffffffffffffffffffffffff168152602001908152602001600020600060035481526020019081526020016000206000820151816000015560208201518160010190805190602001906107ab929190610e87565b506040820151816002015560608201518160030190805190602001906107d2929190610e87565b506080820151816004015560a0820151816005015560c0820151816006019080519060200190610803929190610e87565b5060e082015181600701556101008201518160080155610120820151816009015561014082015181600a019080519060200190610841929190610e87565b5061016082015181600b01908051906020019061085f929190610e87565b5061018082015181600c0160006101000a81548160ff0219169083600181111561088557fe5b02179055506101a082015181600c0160016101000a81548160ff021916908360018111156108af57fe5b02179055509050503360016000600354815260200190815260200160002060006101000a81548173ffffffffffffffffffffffffffffffffffffffff021916908373ffffffffffffffffffffffffffffffffffffffff16021790555050505050505050505050505050565b600060606000606060008060606000806060610934610e01565b600080600160008f815260200190815260200160002060009054906101000a900473ffffffffffffffffffffffffffffffffffffffff1673ffffffffffffffffffffffffffffffffffffffff1673ffffffffffffffffffffffffffffffffffffffff16815260200190815260200160002060008d81526020019081526020016000206101c0604051908101604052908160008201548152602001600182018054600181600116156101000203166002900480601f016020809104026020016040519081016040528092919081815260200182805460018160011615610100020316600290048015610a665780601f10610a3b57610100808354040283529160200191610a66565b820191906000526020600020905b815481529060010190602001808311610a4957829003601f168201915b5050505050815260200160028201548152602001600382018054600181600116156101000203166002900480601f016020809104026020016040519081016040528092919081815260200182805460018160011615610100020316600290048015610b125780601f10610ae757610100808354040283529160200191610b12565b820191906000526020600020905b815481529060010190602001808311610af557829003601f168201915b505050505081526020016004820154815260200160058201548152602001600682018054600181600116156101000203166002900480601f016020809104026020016040519081016040528092919081815260200182805460018160011615610100020316600290048015610bc85780601f10610b9d57610100808354040283529160200191610bc8565b820191906000526020600020905b815481529060010190602001808311610bab57829003601f168201915b50505050508152602001600782015481526020016008820154815260200160098201548152602001600a82018054600181600116156101000203166002900480601f016020809104026020016040519081016040528092919081815260200182805460018160011615610100020316600290048015610c885780601f10610c5d57610100808354040283529160200191610c88565b820191906000526020600020905b815481529060010190602001808311610c6b57829003601f168201915b50505050508152602001600b82018054600181600116156101000203166002900480601f016020809104026020016040519081016040528092919081815260200182805460018160011615610100020316600290048015610d2a5780601f10610cff57610100808354040283529160200191610d2a565b820191906000526020600020905b815481529060010190602001808311610d0d57829003601f168201915b50505050508152602001600c820160009054906101000a900460ff166001811115610d5157fe5b6001811115610d5c57fe5b8152602001600c820160019054906101000a900460ff166001811115610d7e57fe5b6001811115610d8957fe5b815250509050806000015181602001518260400151836060015184608001518560a001518660c001518760e001518861010001518961014001518898508696508393508090509a509a509a509a509a509a509a509a509a509a50509193959799509193959799565b6000600381905550565b60035481565b6101c06040519081016040528060008152602001606081526020016000815260200160608152602001600081526020016000815260200160608152602001600081526020016000815260200160008152602001606081526020016060815260200160006001811115610e6f57fe5b815260200160006001811115610e8157fe5b81525090565b828054600181600116156101000203166002900490600052602060002090601f016020900481019282601f10610ec857805160ff1916838001178555610ef6565b82800160010185558215610ef6579182015b82811115610ef5578251825591602001919060010190610eda565b5b509050610f039190610f07565b5090565b610f2991905b80821115610f25576000816000905550600101610f0d565b5090565b905600a165627a7a723058202634ccb83abf3c3b6c401eb1982a1f081d6ac1630cb7428bf45be3333cdb4fb90029",
  "source": "pragma solidity ^0.4.17;\r\n\r\nimport \"contracts/Escrow.sol\";\r\n\r\ncontract HouseStore {\r\n\r\n    enum HouseStatus { Sold, Unsold }        //房子状态，（售出，未售）\r\n    enum HouseCondition { New, Used }        //房子品相（新房，二手房）\r\n\r\n    struct Product {\r\n        //房子基本信息\r\n        uint id;                 //房子编号\r\n        string name;             //房名\r\n        uint room;               //房间数\r\n        string category;         //房子类别\r\n        uint balcony;            //阳台数量\r\n        uint bathroom;           //卫浴数量\r\n        string HouseAddress;     //房子地址\r\n        uint floors;             //楼层\r\n        uint price;              //月租\r\n        uint deposit;            //押金\r\n        string imageLink;        //房子图片链接地址\r\n        string descLink;         //房子描述链接地址\r\n\r\n        //房子出租信息\r\n        HouseStatus status;       //房子销售状态：售出、未售\r\n        HouseCondition condition; //品相：新品、二手\r\n\r\n        mapping (address => mapping (uint => Buyer)) buyers;\r\n    }\r\n\r\n    //买家信息\r\n    struct Buyer {\r\n        address buyeradd;          //买家账户地址\r\n        uint HouseId;              //房子编号\r\n        uint value;                //支付金额\r\n        uint StartTime;            //开始租房时间\r\n        uint month;                //租房时长\r\n    }\r\n\r\n    //嵌套的mapping来区分不同卖家的房子：键为卖家的账户地址，值为另一个mapping —— 从房子编号到房子信息的映射：\r\n    mapping (address => mapping(uint => Product)) stores;\r\n\r\n    //房子编号到卖家账户地址的映射表\r\n    mapping (uint => address ) HouseIdInStore;\r\n\r\n    mapping (uint => address) productEscrow;\r\n\r\n    // event NewProduct(uint _productId, string _name, string _category, string _imageLink, string _descLink, uint _auctionStartTime, uint _auctionEndTime, uint _startPrice, uint _productCondition);\r\n\r\n    //productIndex状态用来记录这个全局性的房子编号计数器\r\n    uint public HouseIndex;\r\n    function houseId() public { HouseIndex = 0; }\r\n\r\n    //参数为构建Product结构所需的基本信息。卖家将调用这个方法来上架商品\r\n    function addHouseToStore(\r\n        string _name,             //房名\r\n        uint _room,               //房间数\r\n        string _category,         //房子类别\r\n        uint _balcony,            //阳台数量\r\n        uint _bathroom,           //卫浴数量\r\n        string _HouseAddress,     //房子地址\r\n        uint _floors,             //楼层\r\n        uint _price,              //月租\r\n        uint _deposit,            //押金\r\n        string _imageLink,        //房子图片链接地址\r\n        string _descLink,         //房子描述链接地址\r\n        uint _HouseCondition      //品相：新品、二手\r\n    ) public {\r\n        //房子编号计数器递增\r\n        HouseIndex += 1;\r\n        //构造Product结构变量\r\n        Product memory product = Product(HouseIndex, _name, _room, _category, _balcony, _bathroom,\r\n                            _HouseAddress, _floors, _price, _deposit, _imageLink, _descLink,\r\n                            HouseStatus.Unsold, HouseCondition(_HouseCondition));\r\n        //存入房子目录表\r\n        stores[msg.sender][HouseIndex] = product;\r\n        //保存房子反查表\r\n        HouseIdInStore[HouseIndex] = msg.sender;\r\n    }\r\n\r\n    //问题，堆栈太深，只能返回10个变量\r\n    function getProduct( uint _productId) view public returns (uint, string, uint, string, uint, uint, string,\r\n                                                                uint, uint, string) {\r\n        //利用商品编号提取商品信息\r\n        Product memory product = stores[HouseIdInStore[_productId]][_productId];\r\n        //按照定义的先后顺序依次返回product结构各成员\r\n        return (product.id, product.name, product.room, product.category,product.balcony,\r\n            product.bathroom, product.HouseAddress, product.floors, product.price,product.imageLink);\r\n    }\r\n\r\n    function buy (\r\n            uint _productId,      //商品编号\r\n            uint _month,          //月份\r\n            uint _StartTime,      //入住时间\r\n            uint _prices       //支付金额\r\n            ) payable public returns (bool) {\r\n\r\n        //利用商品编号提取商品数据\r\n        Product storage product = stores[HouseIdInStore[_productId]][_productId];\r\n\r\n        //支付的金额大于等于押金 + 租金\r\n        require ( _prices >= product.deposit + product.price * _month);\r\n\r\n        //保存支付信息\r\n        product.buyers[msg.sender][_prices] = Buyer(msg.sender, _productId, _prices, _StartTime, _month);\r\n        return true;\r\n    }\r\n\r\n}\r\n\r\n\r\n    //命令：\r\n    //>truffle compile     //编译\r\n//>ganache-cli         //节点仿真器\r\n//>truffle migrate     //执行迁移脚本：\r\n//truffle console      //进入truffle控制台\r\n\r\n//先代表卖家添加一个商品。现在先随便设定一下图片和描述链接，在实现IPFS的 相关功能后，再来改进这一点：\r\n\r\n//truffle(development)>  m_price = web3.toWei(1, 'ether');                  //使用web3.toWei()方法将1个以太转换为以wei为单位的面值\r\n//truffle(development)>  current_time = Math.round(new Date() / 1000);    // 然后获取当前时间值并转换为以秒为单位的数值\r\n//truffle(development)>  HouseStore.deployed().then(\r\n    //function(inst) {\r\n        //inst.addHouseToStore('碧桂园', 2, 'apartment', 1, 1, '玉林市教育路1号', 8, m_price, 'imagelink', 'desclink',\r\n        // 0\r\n        //).then(\r\n            //function(f) {\r\n               //console.log(f)\r\n            //})\r\n    //});\r\n//调用电商合约实例的addProductStore() 方法将一个商品添加到合约的商品目录中。\r\n\r\n\r\n// 测试商品信息查看功能, 代表买家，来查看指定编号商品的信息：\r\n\r\n// truffle(development)>  HouseStore.deployed().then(function(inst) {inst.getProduct.call(1).then(function(f) {console.log(f)})})\r\n\r\n\r\n\r\n\r\n\r\n\r\n// HouseStore.deployed().then(function(inst) { inst.addHouseToStore('碧桂园', 2, 'apartment', 1, 1, '玉林市教育路1号', 8, m_price, 'imagelink', 'desclink',9).then(function(f){console.log(f)})});",
  "sourcePath": "F:\\视频\\区块链\\House\\contracts\\HouseStore.sol",
  "compiler": {
    "name": "solc",
    "version": "0.4.26+commit.4563c3fc.Emscripten.clang"
  },
  "schemaVersion": "2.0.3",
  "updatedAt": "2019-11-07T12:05:53.934Z"
}