{
  "contractName": "HouseStore",
  "abi": [
    {
      "constant": true,
      "inputs": [],
      "name": "HouseIndex",
      "outputs": [
        {
          "name": "",
          "type": "uint256"
        }
      ],
      "payable": false,
      "stateMutability": "view",
      "type": "function"
    },
    {
      "constant": false,
      "inputs": [],
      "name": "houseId",
      "outputs": [],
      "payable": false,
      "stateMutability": "nonpayable",
      "type": "function"
    },
    {
      "constant": false,
      "inputs": [
        {
          "name": "_name",
          "type": "string"
        },
        {
          "name": "_room",
          "type": "uint256"
        },
        {
          "name": "_category",
          "type": "string"
        },
        {
          "name": "_balcony",
          "type": "uint256"
        },
        {
          "name": "_bathroom",
          "type": "uint256"
        },
        {
          "name": "_HouseAddress",
          "type": "string"
        },
        {
          "name": "_floors",
          "type": "uint256"
        },
        {
          "name": "_price",
          "type": "uint256"
        },
        {
          "name": "_imageLink",
          "type": "string"
        },
        {
          "name": "_descLink",
          "type": "string"
        },
        {
          "name": "_HouseCondition",
          "type": "uint256"
        }
      ],
      "name": "addHouseToStore",
      "outputs": [],
      "payable": false,
      "stateMutability": "nonpayable",
      "type": "function"
    },
    {
      "constant": true,
      "inputs": [
        {
          "name": "_productId",
          "type": "uint256"
        }
      ],
      "name": "getProduct",
      "outputs": [
        {
          "name": "",
          "type": "uint256"
        },
        {
          "name": "",
          "type": "string"
        },
        {
          "name": "",
          "type": "uint256"
        },
        {
          "name": "",
          "type": "string"
        },
        {
          "name": "",
          "type": "uint256"
        },
        {
          "name": "",
          "type": "uint256"
        },
        {
          "name": "",
          "type": "string"
        },
        {
          "name": "",
          "type": "uint256"
        },
        {
          "name": "",
          "type": "uint256"
        },
        {
          "name": "",
          "type": "string"
        }
      ],
      "payable": false,
      "stateMutability": "view",
      "type": "function"
    }
  ],
  "bytecode": "0x608060405234801561001057600080fd5b50610d5f806100206000396000f300608060405260043610610062576000357c0100000000000000000000000000000000000000000000000000000000900463ffffffff168063b9db15b414610067578063c00acb4a1461027b578063d633d77914610292578063f79e341b146102bd575b600080fd5b34801561007357600080fd5b506100926004803603810190808035906020019092919050505061047a565b604051808b8152602001806020018a815260200180602001898152602001888152602001806020018781526020018681526020018060200185810385528e818151815260200191508051906020019080838360005b838110156101025780820151818401526020810190506100e7565b50505050905090810190601f16801561012f5780820380516001836020036101000a031916815260200191505b5085810384528c818151815260200191508051906020019080838360005b8381101561016857808201518184015260208101905061014d565b50505050905090810190601f1680156101955780820380516001836020036101000a031916815260200191505b50858103835289818151815260200191508051906020019080838360005b838110156101ce5780820151818401526020810190506101b3565b50505050905090810190601f1680156101fb5780820380516001836020036101000a031916815260200191505b50858103825286818151815260200191508051906020019080838360005b83811015610234578082015181840152602081019050610219565b50505050905090810190601f1680156102615780820380516001836020036101000a031916815260200191505b509e50505050505050505050505050505060405180910390f35b34801561028757600080fd5b5061029061095b565b005b34801561029e57600080fd5b506102a7610965565b6040518082815260200191505060405180910390f35b3480156102c957600080fd5b50610478600480360381019080803590602001908201803590602001908080601f016020809104026020016040519081016040528093929190818152602001838380828437820191505050505050919291929080359060200190929190803590602001908201803590602001908080601f01602080910402602001604051908101604052809392919081815260200183838082843782019150505050505091929192908035906020019092919080359060200190929190803590602001908201803590602001908080601f01602080910402602001604051908101604052809392919081815260200183838082843782019150505050505091929192908035906020019092919080359060200190929190803590602001908201803590602001908080601f0160208091040260200160405190810160405280939291908181526020018383808284378201915050505050509192919290803590602001908201803590602001908080601f01602080910402602001604051908101604052809392919081815260200183838082843782019150505050505091929192908035906020019092919050505061096b565b005b600060606000606060008060606000806060610494610c01565b600080600160008f815260200190815260200160002060009054906101000a900473ffffffffffffffffffffffffffffffffffffffff1673ffffffffffffffffffffffffffffffffffffffff1673ffffffffffffffffffffffffffffffffffffffff16815260200190815260200160002060008d81526020019081526020016000206101e0604051908101604052908160008201548152602001600182018054600181600116156101000203166002900480601f0160208091040260200160405190810160405280929190818152602001828054600181600116156101000203166002900480156105c65780601f1061059b576101008083540402835291602001916105c6565b820191906000526020600020905b8154815290600101906020018083116105a957829003601f168201915b5050505050815260200160028201548152602001600382018054600181600116156101000203166002900480601f0160208091040260200160405190810160405280929190818152602001828054600181600116156101000203166002900480156106725780601f1061064757610100808354040283529160200191610672565b820191906000526020600020905b81548152906001019060200180831161065557829003601f168201915b505050505081526020016004820154815260200160058201548152602001600682018054600181600116156101000203166002900480601f0160208091040260200160405190810160405280929190818152602001828054600181600116156101000203166002900480156107285780601f106106fd57610100808354040283529160200191610728565b820191906000526020600020905b81548152906001019060200180831161070b57829003601f168201915b505050505081526020016007820154815260200160088201548152602001600982018054600181600116156101000203166002900480601f0160208091040260200160405190810160405280929190818152602001828054600181600116156101000203166002900480156107de5780601f106107b3576101008083540402835291602001916107de565b820191906000526020600020905b8154815290600101906020018083116107c157829003601f168201915b50505050508152602001600a82018054600181600116156101000203166002900480601f0160208091040260200160405190810160405280929190818152602001828054600181600116156101000203166002900480156108805780601f1061085557610100808354040283529160200191610880565b820191906000526020600020905b81548152906001019060200180831161086357829003601f168201915b50505050508152602001600b8201548152602001600c8201548152602001600d820160009054906101000a900460ff1660018111156108bb57fe5b60018111156108c657fe5b8152602001600d820160019054906101000a900460ff1660018111156108e857fe5b60018111156108f357fe5b815250509050806000015181602001518260400151836060015184608001518560a001518660c001518760e001518861010001518961012001518898508696508393508090509a509a509a509a509a509a509a509a509a509a50509193959799509193959799565b6000600281905550565b60025481565b610973610c01565b60016002600082825401925050819055506101e06040519081016040528060025481526020018d81526020018c81526020018b81526020018a815260200189815260200188815260200187815260200186815260200185815260200184815260200160008152602001600081526020016001808111156109ef57fe5b8152602001836001811115610a0057fe5b6001811115610a0b57fe5b8152509050806000803373ffffffffffffffffffffffffffffffffffffffff1673ffffffffffffffffffffffffffffffffffffffff16815260200190815260200160002060006002548152602001908152602001600020600082015181600001556020820151816001019080519060200190610a88929190610c8e565b50604082015181600201556060820151816003019080519060200190610aaf929190610c8e565b506080820151816004015560a0820151816005015560c0820151816006019080519060200190610ae0929190610c8e565b5060e082015181600701556101008201518160080155610120820151816009019080519060200190610b13929190610c8e565b5061014082015181600a019080519060200190610b31929190610c8e565b5061016082015181600b015561018082015181600c01556101a082015181600d0160006101000a81548160ff02191690836001811115610b6d57fe5b02179055506101c082015181600d0160016101000a81548160ff02191690836001811115610b9757fe5b02179055509050503360016000600254815260200190815260200160002060006101000a81548173ffffffffffffffffffffffffffffffffffffffff021916908373ffffffffffffffffffffffffffffffffffffffff160217905550505050505050505050505050565b6101e0604051908101604052806000815260200160608152602001600081526020016060815260200160008152602001600081526020016060815260200160008152602001600081526020016060815260200160608152602001600081526020016000815260200160006001811115610c7657fe5b815260200160006001811115610c8857fe5b81525090565b828054600181600116156101000203166002900490600052602060002090601f016020900481019282601f10610ccf57805160ff1916838001178555610cfd565b82800160010185558215610cfd579182015b82811115610cfc578251825591602001919060010190610ce1565b5b509050610d0a9190610d0e565b5090565b610d3091905b80821115610d2c576000816000905550600101610d14565b5090565b905600a165627a7a72305820b5a61d83eeb80a0d79f4ece09317c7e722681561d61b882384030a63aa2d74620029",
  "source": "pragma solidity ^0.4.17;\r\n\r\ncontract HouseStore {\r\n    struct Product {\r\n        //房子基本信息\r\n        uint id;                 //房子编号\r\n        string name;             //房名\r\n        uint room;               //房间数\r\n        string category;         //房子类别\r\n        uint balcony;            //阳台数量\r\n        uint bathroom;           //卫浴数量\r\n        string HouseAddress;     //房子地址\r\n        uint floors;             //楼层\r\n        uint price;              //月租\r\n        string imageLink;        //房子图片链接地址\r\n        string descLink;         //房子描述链接地址\r\n\r\n        //房子出租信息\r\n        uint StartTime;        //开始出租时间\r\n        uint duration;         //租房时长\r\n\r\n        HouseStatus status;       //房子销售状态：售出、未售\r\n        HouseCondition condition; //品相：新品、二手\r\n    }\r\n    enum HouseStatus { Sold, Unsold }        //房子状态，（售出，未售）\r\n    enum HouseCondition { New, Used }        //房子品相（新房，二手房）\r\n\r\n    //嵌套的mapping来区分不同卖家的房子：键为卖家的账户地址，值为另一个mapping —— 从房子编号到房子信息的映射：\r\n    mapping (address => mapping(uint => Product)) stores;\r\n\r\n    //房子编号到卖家账户地址的映射表\r\n    mapping (uint => address ) HouseIdInStore;\r\n\r\n    //productIndex状态用来记录这个全局性的房子编号计数器\r\n    uint public HouseIndex;\r\n    function houseId() public { HouseIndex = 0; }\r\n\r\n    //参数为构建Product结构所需的基本信息。卖家将调用这个方法来上架商品\r\n    function addHouseToStore(\r\n        string _name,             //房名\r\n        uint _room,               //房间数\r\n        string _category,         //房子类别\r\n        uint _balcony,            //阳台数量\r\n        uint _bathroom,           //卫浴数量\r\n        string _HouseAddress,     //房子地址\r\n        uint _floors,             //楼层\r\n        uint _price,              //月租\r\n        string _imageLink,        //房子图片链接地址\r\n        string _descLink,         //房子描述链接地址\r\n        uint _HouseCondition      //品相：新品、二手\r\n    ) public {\r\n        //房子编号计数器递增\r\n        HouseIndex += 1;\r\n        //构造Product结构变量\r\n        Product memory product = Product(HouseIndex, _name, _room, _category, _balcony, _bathroom,\r\n                            _HouseAddress, _floors, _price, _imageLink, _descLink, 0, 0,\r\n                            HouseStatus.Unsold, HouseCondition(_HouseCondition));\r\n        //存入房子目录表\r\n        stores[msg.sender][HouseIndex] = product;\r\n        //保存房子反查表\r\n        HouseIdInStore[HouseIndex] = msg.sender;\r\n    }\r\n\r\n    //问题，堆栈太深，只能返回10个变量\r\n    function getProduct( uint _productId) view public returns(uint, string, uint, string, uint, uint, string,\r\n                                                                uint, uint, string\r\n                                                                ) {\r\n        //利用商品编号提取商品信息\r\n        Product memory product = stores[HouseIdInStore[_productId]][_productId];\r\n        //按照定义的先后顺序依次返回product结构各成员\r\n        return (product.id, product.name, product.room, product.category,product.balcony,\r\n            product.bathroom, product.HouseAddress, product.floors, product.price,product.imageLink);\r\n    }\r\n}\r\n\r\n\r\n//命令：\r\n//>truffle compile     //编译\r\n//>ganache-cli         //节点仿真器\r\n//>truffle migrate     //执行迁移脚本：\r\n//truffle console      //进入truffle控制台\r\n\r\n//先代表卖家添加一个商品。现在先随便设定一下图片和描述链接，在实现IPFS的 相关功能后，再来改进这一点：\r\n\r\n//truffle(development)>  m_price = web3.toWei(1, 'ether');                  //使用web3.toWei()方法将1个以太转换为以wei为单位的面值\r\n//truffle(development)>  current_time = Math.round(new Date() / 1000);    // 然后获取当前时间值并转换为以秒为单位的数值\r\n//truffle(development)>  HouseStore.deployed().then(\r\n    //function(inst) {\r\n        //inst.addHouseToStore('碧桂园', 2, 'apartment', 1, 1, '玉林市教育路1号', 8, m_price, 'imagelink', 'desclink',\r\n        // 0\r\n        //).then(\r\n            //function(f) {\r\n               //console.log(f)\r\n            //})\r\n    //});\r\n//调用电商合约实例的addProductStore() 方法将一个商品添加到合约的商品目录中。\r\n\r\n\r\n// 测试商品信息查看功能, 代表买家，来查看指定编号商品的信息：\r\n\r\n// truffle(development)>  HouseStore.deployed().then(function(inst) {inst.getProduct.call(1).then(function(f) {console.log(f)})})\r\n\r\n\r\n\r\n\r\n\r\n\r\n// HouseStore.deployed().then(function(inst) { inst.addHouseToStore('碧桂园', 2, 'apartment', 1, 1, '玉林市教育路1号', 8, m_price, 'imagelink', 'desclink',9).then(function(f){console.log(f)})});",
  "sourcePath": "F:\\视频\\区块链\\House\\c2c\\contracts\\HouseStore.sol",
  "compiler": {
    "name": "solc",
    "version": "0.4.26+commit.4563c3fc.Emscripten.clang"
  },
  "schemaVersion": "2.0.3",
  "updatedAt": "2019-10-31T03:15:58.540Z"
}